:100000000C942A000C943F000C943F000C943F0089
:100010000C943F000C943F000C943F000C943F0064
:100020000C943F000C943F000C943F000C943F0054
:100030000C943F000C943F000C943F000C943F0044
:100040000C943F000C943F000C943F000C943F0034
:100050000C943F0011241FBECFE5D8E0DEBFCDBF1A
:1000600010E0A0E6B0E0ECE4F1E002C005900D92F3
:10007000AC36B107D9F70E9441000C94A4000C944F
:10008000000060E875E280E090E00E944C0080E6AD
:1000900090E00E947300FFCFDC01CB01880F991F15
:1000A000AA1FBB1F880F991FAA1FBB1F9C01AD0170
:1000B000220F331F441F551F220F331F441F551F8C
:1000C00060E072E18AE790E00E94820021503109ED
:1000D00030BD29B988E18AB986E880BD08955D9B65
:1000E000FECF8CB90895CF93DF93EC0188818823EC
:1000F00031F021960E946F0089918111FBCFDF9131
:10010000CF910895A1E21A2EAA1BBB1BFD010DC0C1
:10011000AA1FBB1FEE1FFF1FA217B307E407F507B7
:1001200020F0A21BB30BE40BF50B661F771F881F93
:10013000991F1A9469F760957095809590959B0129
:0C014000AC01BD01CF010895F894FFCF81
:0C014C00537461727465642E2E2E0A003C
:00000001FF
