S00F00004D5154544170702E73726563AE
S11300000C942A000C9447000C9447000C9447006D
S11300100C9447000C9447000C9447000C948702FE
S11300200C9447000C9447000C9447000C94470030
S11300300C9447000C9447000C9447000C94470020
S11300400C9447000C9447000C9447000C94470010
S11300500C94470011241FBECFE5D8E0DEBFCDBF0E
S113006010E0A0E6B0E0E2E9FEE002C005900D92E7
S1130070A639B107D9F726E0A6E9B0E001C01D9280
S1130080A83DB207E1F70E94C3060C9447070C94FD
S11300900000CF93DF93EC010E9407048091960047
S11300A090919700892B31F489E990E0909397001F
S11300B0809396002091740630917506CE01820FCC
S11300C0931F8B3D45E0940770F42817390758F4C3
S11300D0C0919600D0919700C20FD31F90937506DC
S11300E08093740602C0C0E0D0E00E94BF04CE0139
S11300F0DF91CF9108950895FC0103969283818343
S11301002FEF3FEF34832383968385839087878300
S113011010820895FC01118610860895CF93DF9311
S11301209C01FB01DC011196CD91DC911297D383E4
S1130130C2838C819D81958384838C819D81DC0124
S113014013967C936E9312977D836C8331872087FB
S1130150F90180818F5F8083DF91CF9108950F93A0
S11301601F93CF93DF938C01FB01808191818F3F9B
S11301702FEF920721F4E801AF81B8850EC0D801B2
S1130180139601C0D90112962D913C911397E90160
S11301904881598184179507A8F712968D919C91EF
S11301A0139793838283EC01FD83EC83B583A4834B
S11301B01396FC93EE93129711870087F8018081C0
S11301C08F5F8083DF91CF911F910F910895CF931B
S11301D0DF93FC01A085B1858281938124813581DF
S11301E0EC013D832C83C481D5819B838A83119642
S11301F08D919C9112978E179F0721F41296DC9390
S1130200CE931197118610868C9181508C93DF9137
S1130210CF91089531E1FC013083319722E22083AC
S1130220FC013297A3E3A083FC0133976083FC01B4
S113023034977083FC0135971082FC01369760E88F
S11302406083FC0137971082FC01389762E0608379
S1130250FC01399763E06083FC013A9764E06083B2
S1130260FC013B9765E06083FC013C9766E060839A
S1130270FC013D9767E06083FC013E9768E0608382
S1130280FC013F9769E06083FC01709760E1608343
S1130290FC0171973083FC01729732E13083FC01D9
S11302A0739733E13083FC01749734E13083FC01AC
S11302B0759735E13083FC01769736E13083FC0194
S11302C0779737E13083FC01789738E13083FC017C
S11302D0799739E13083FC017A9730E23083FC016D
S11302E07B9731E23083FC017C972083FC017D976E
S11302F023E22083FC017E974083FC017F97508397
S1130300FC01B09726E22083FC01B19727E2208309
S1130310FC01B29728E22083FC01B39729E22083F1
S1130320FC01B49720E32083FC01B59721E32083EB
S11303309C0126523109C90108951BBC8CE78ABD72
S11303408BE08EBD89B7806189BFA0918406B0918E
S11303508506CD91CDBFDD91DEBFFF91EF91DF9199
S1130360CF91BF91AF919F918F917F916F915F9149
S11303704F913F912F911F910F91FF90EF90DF903C
S1130380CF90BF90AF909F908F907F906F905F9031
S11303904F903F902F901F900F900FBE0F90089595
S11303A081E008950F920FB6F8940F921F921124D2
S11303B02F923F924F925F926F927F928F929F9271
S11303C0AF92BF92CF92DF92EF92FF920F931F935F
S11303D02F933F934F935F936F937F938F939F9349
S11303E0AF93BF93CF93DF93EF93FF93A0918406D2
S11303F0B09185060DB60D920EB60D920E948A0537
S1130400A0918406B0918506CD91CDBFDD91DEBF6C
S1130410FF91EF91DF91CF91BF91AF919F918F9118
S11304207F916F915F914F913F912F911F910F9108
S1130430FF90EF90DF90CF90BF90AF909F908F9000
S11304407F906F905F904F903F902F901F900F90F0
S11304500FBE0F9008950F920FB6F8940F921F924B
S113046011242F923F924F925F926F927F928F92BC
S11304709F92AF92BF92CF92DF92EF92FF920F932F
S11304801F932F933F934F935F936F937F938F9318
S11304909F93AF93BF93CF93DF93EF93FF93A09179
S11304A08406B09185060DB60D920EB60D920E948B
S11304B00D0481110E948A05A0918406B0918506DD
S11304C0CD91CDBFDD91DEBFFF91EF91DF91CF9153
S11304D0BF91AF919F918F917F916F915F914F9158
S11304E03F912F911F910F91FF90EF90DF90CF904C
S11304F0BF90AF909F908F907F906F905F904F9040
S11305003F902F901F900F900FBE0F9008950E9460
S11305102B021895E0918206F09183068081811167
S113052003C08FEF9FEF0CC0E0918206F091830629
S11305300580F681E02D0680F781E02D828193818C
S113054090936100809360000895CF93DF93EC0152
S1130550E0918406F09185069383828380917C06E2
S113056090917D066091840670918506C817D9071D
S113057050F480918006909181066E5F7F4FDF91E9
S1130580CF910C94AF0080918206909183066E5FA8
S11305907F4F0E94AF008091600090916100C81766
S11305A0D90720F4D0936100C0936000DF91CF910C
S11305B008955F926F927F928F929F92AF92BF92B3
S11305C0CF92DF92EF92FF920F931F93CF93DF931B
S11305D04C01162F572E5A01390187E390E00E94EF
S11305E04900EC01009709F4CFC0C114D10421F4EF
S11305F0C5010E94490001C0C601988F8F8B0097E6
S113060009F0B8C0CE010E947B00BEC0BF01419179
S11306109E01280F391FD90159964C93DB012C9167
S1130620222321F001968E31910581F71EAA102F05
S1130630053008F014E01E8B6E01B2E0CB0ED11C25
S1130640C6010E948A00CE010C960E948A00D987B6
S1130650C88785E090E0811B91099D878C87DB8B9F
S1130660CA8BA301B401C5010E940A01998388833E
S1130670E114F10419F0F701D183C0830FB6F894A3
S11306800F9280917E068F5F80937E068091840610
S113069090918506892BC9F5D0938506C09384066D
S11306A080917E06813009F03FC0E12CF12C19E0E5
S11306B01E9DC0011F9D900D11248957994F0E94C2
S11306C07C00FFEFEF1AFF0A25E0E216F10481F740
S11306D084EB96E00E947C008DEB96E00E947C0007
S11306E086EC96E00E947C008FEC96E00E947C00F1
S11306F084EB96E090938306809382068DEB96E0DC
S113070090938106809380060FC080917A068111B0
S11307100BC0E0918406F09185068689081720F0C5
S1130720D0938506C0938406809186068F5F80935C
S113073086068E8990917B06981710F480937B0629
S1130740A9E08A9FC0011124B6018957994F0E94DC
S11307508E000F900FBE80917A06882349F0E091B5
S11307608406F09185068689801710F40E94D201D0
S113077081E00BC0B1E0AB1AB108A80EB91EE12F9D
S1130780F52D80E090E042CF8FEFDF91CF911F9164
S11307900F91FF90EF90DF90CF90BF90AF909F901C
S11307A08F907F906F905F900895AF92BF92CF9299
S11307B0DF92EF92FF920F93A12CB12CC12CD12C7C
S11307C0E12CF12C00E020E030E045E550E064E667
S11307D070E081E395E00E94D902813081F4F894BD
S11307E080937A0610927D0610927C060F91FF90FA
S11307F0EF90DF90CF90BF90AF900C949D010F913C
S1130800FF90EF90DF90CF90BF90AF9008958091CC
S113081076068F5F809376060895CF92DF92EF92EB
S1130820FF920F931F93CF93DF93809176068111EC
S11308308DC080917C0690917D06019690937D06F3
S113084080937C0600917C0610917D0601151105AC
S1130850B9F48091820690918306209180063091AC
S113086081063093830620938206909381068093B9
S11308708006809177068F5F809377060E948A02B4
S11308808091600090916100D12C0817190720F421
S11308904EC0DD24D39402C089E0C82EE0918206C4
S11308A0F09183068081811107C08FEF9FEF9093B1
S11308B06100809360003BC0E0918206F091830662
S11308C00580F681E02DC681D7812A813B810217FC
S11308D0130728F4309361002093600028C07E0140
S11308E082E0E80EF11CC7010E94E7002C893D89D3
S11308F0232B21F0CE010C960E94E7002E898091D3
S11309007B06821710F420937B06C29EC00111243B
S1130910B7018957994F0E948E00E0918406F091A7
S113092085069E898689981708F0B3CFB7CFE091E2
S11309308406F0918506E68989E0E89FF001112498
S1130940E957F94F8081823040F409C080917906DB
S11309508F5F80937906D12C02C0DD24D3948091DB
S11309607806882311F0DD24D3948D2DDF91CF9167
S11309701F910F91FF90EF90DF90CF900895EF9229
S1130980FF920F931F93CF93DF930FB6F8940F92B8
S1130990809176068150809376068091760688232E
S11309A011F080E055C080917E0681112BC0F9CFF3
S11309B0E091CB06F091CC06C681D781CE010C968E
S11309C00E94E7008E010E5F1F4FC8010E94E700DE
S11309D08E8990917B06981710F480937B06F89E7D
S11309E0C0011124B8018957994F0E948E00E091EB
S11309F08406F09185069E898689981738F0E092DE
S1130A00780604C099E0F92EEE24E3948091C6069A
S1130A108111CECF80917906811111C08091780621
S1130A20813009F0BECF11C00E940D048111C09322
S1130A3078068091790681508093790601C0C1E0DF
S1130A40809179068111F0CFE9CF0E94D20181E033
S1130A500F900FBEDF91CF911F910F91FF90EF90F8
S1130A60089580917F06882349F10E940704C0916C
S1130A70CF060E94BF04CC23A1F30FB6F8940F92C3
S1130A80E091D406F091D506C681D781CE010296B5
S1130A900E94E70080917E06815080937E068091BB
S1130AA07F06815080937F060F900FBE8F89988DAB
S1130AB00E947B00CE010E947B00D3CF80918706E9
S1130AC0823078F20E94D201CCCF0F931F93CF9340
S1130AD0DF938C01009719F40E94D20116C00E9482
S1130AE00704C0917C06D0917D06C00FD11F809170
S1130AF084069091850602960E94E700CE010E942A
S1130B00A5020E94BF04882339F3DF91CF911F917E
S1130B100F91089580917606882321F081E08093D7
S1130B20780608951092780699E005C080917B06B6
S1130B30815080937B06E0917B069E9FF0011124F7
S1130B40E957F94F8081882389F3E0917B0689E096
S1130B50E89FF0011124E957F94FA181B28112965F
S1130B600D90BC91A02DB283A183CF010396A81749
S1130B70B90731F412968D919C91139792838183D6
S1130B800180F281E02D8681978190938506809380
S1130B90840608951F93CF93DF931F92CDB7DEB7DA
S1130BA0182F80E099830E940C07E12F9981F92F77
S1130BB0DF010D900020E9F711978A2F811B0E9415
S1130BC00C07812F99810F90DF91CF911F910C9485
S1130BD010070F931F93CF93DF938C01EC010990BF
S1130BE00020E9F72197C81BD90B80E10E940C076C
S1130BF08C2F845F0E940C0789E690E00E94CA054E
S1130C0084E00E940C0782E00E940C078FEF0E9490
S1130C100C078FEF0E940C07C801DF91CF911F9141
S1130C200F910C94CA05EF92FF921F93CF93DF9319
S1130C301F92CDB7DEB7182FE82FF92FDF010D90E3
S1130C400020E9F77D0121E0E21AF108EE1AFF0A1B
S1130C5082E899830E940C078E2D8B5F0E940C07FB
S1130C60809163000E940C07809162000E940C072F
S1130C7020916200309163002F5F3F4F30936300F7
S1130C8020936200812F99810E94CA0581E00F9010
S1130C90DF91CF911F91FF90EF900C940C07CF93AD
S1130CA0DF931F92CDB7DEB7198200E010E0F12C7C
S1130CB0EE24EA940DC001E011E00AC001E012E064
S1130CC007C001E013E004C001E014E001C010E03B
S1130CD0CE0101960E941C07882399F11230A1F0DD
S1130CE018F4113029F40EC0133091F0143099F037
S1130CF08981803201F3803909F3803411F3803320
S1130D0019F3E5CF0F5F04C00F5F053009F7DFCF9C
S1130D100430F1F6DCCF013009F4F980202F30E003
S1130D208F2D90E001962817390749F48981813382
S1130D3011F4EBBA03C0803309F41BBA10E00F5F5F
S1130D40C7CF81E090E00E946505C2CF8EE690E0B7
S1130D500E94E90588EE93E00E94650589E790E02A
S1130D600E94130688EE93E00E94650588E893E1EB
S1130D70FBCF60E875E280E090E00E94F4068FEF1C
S1130D808ABB1BBA0895AF92BF92CF92DF92EF92C3
S1130D90FF920F930E94B906A12CB12CC12CD12C27
S1130DA0E12CF12C03E020E030E044E650E060E088
S1130DB070E086EA96E00E94D90204E020E030E088
S1130DC044E650E060E070E08FE496E00E94D902CF
S1130DD00E94D50380E090E00F91FF90EF90DF90A8
S1130DE0CF90BF90AF9008959B01AC0184E0220F97
S1130DF0331F441F551F8A95D1F760E072E18AE7DB
S1130E0090E00E9425072150310930BD29B988E1BD
S1130E108AB986E880BD08955D9BFECF8CB908959C
S1130E20CF93DF93EC0102C00E940C0789918111DA
S1130E30FBCFDF91CF9108955F9B05C02CB1FC01DE
S1130E40208381E0089580E00895A1E21A2EAA1B70
S1130E50BB1BFD010DC0AA1FBB1FEE1FFF1FA21766
S1130E60B307E407F50720F0A21BB30BE40BF50B63
S1130E70661F771F881F991F1A9469F760957095EC
S1130E80809590959B01AC01BD01CF010895F89424
S1050E90FFCF8E
S1130E92FFFF010049444C45004D5154540049445C
S1130EA24D4841413133383900636F6E74726F6C4F
S1130EB2006D61685F6875733A2564006E74695FDA
S1090EC274656D70000070
S9030000FC
